:020000040800F2
:100000004017002099010008B11C0008C11B00081E
:10001000791C00086D080008E120000800000000BD
:1000200000000000000000000000000001010008C6
:10003000A10800080000000045010008C91C0008D4
:10004000B3010008B3010008B3010008B3010008C0
:10005000B3010008B3010008B3010008B3010008B0
:10006000B3010008B3010008B3010008B3010008A0
:10007000B3010008B3010008710800087D080008FA
:100080008908000895080008B3010008B3010008BA
:10009000B3010008B3010008B3010008B301000870
:1000A000B30100080D1E0008B3010008B3010008E9
:1000B000B3010008B3010008B3010008B301000850
:1000C000B3010008B3010008B3010008B301000840
:1000D000B3010008C9200008D5200008B3010008BA
:1000E000B3010008B3010008B3010008DFF80CD029
:1000F00000F02CFB00480047D92A000840170020D8
:10010000224B19680868B0E8F00F80F30988BFF344
:100110006F8F4FF0000080F311884EF00D0E704786
:100120000000000006480068006880F3088862B696
:1001300061B6BFF34F8FBFF36F8F00DF00BF00BF0B
:1001400008ED00E0EFF30980BFF36F8F0F4B1A68E3
:1001500020E9F00F106008B54FF0500080F31188CF
:10016000BFF34F8FBFF36F8F03F016F94FF000000E
:1001700080F31188BDE8084019680868B0E8F00FFE
:1001800080F30988BFF36F8F704700BF64000020C1
:10019000EFF3058070470000064880470648004797
:1001A000FEE7FEE7FEE7FEE7FEE7FEE7FEE7FEE727
:1001B000FEE7FEE7451D0008ED000008202A04DBED
:1001C000203A21FA02F00021704721FA02F3D040D0
:1001D000C2F12002914008431946704740EA0103EA
:1001E0009B0703D009E008C9121F08C0042AFAD2ED
:1001F00003E011F8013B00F8013B521EF9D27047B1
:10020000D2B201E000F8012B491EFBD27047002258
:10021000F6E710B513460A4604461946FFF7F0FF05
:10022000204610BD421C10F8011B0029FBD1801A8A
:10023000704730B480EA010202F0004530F000421D
:1002400021F0004013D090B1C30DD40DC2F31601BC
:10025000C0F31600E41A41F4000140F400027D34BA
:10026000914201D3641C00E04900002C02DA30BC4A
:10027000002070474FF400000023914201D3891AF7
:10028000034340084FEA4101F7D151B1914202D1F5
:100290004FF0004105E002D24FF0010101E06FF0A4
:1002A000010103EBC450284430BC00F060B8962331
:1002B0000022114600F064B820F00040C10DC0F3E8
:1002C000160040F400007F2901DA002070479629CB
:1002D00003DCC1F19601C8407047963988407047E9
:1002E00030B50B46014600202022012409E021FA06
:1002F00002F59D4205D303FA02F5491B04FA02F503
:100300002844151EA2F10102F1DC30BD2DE9F05F99
:100310000546002092469B46884606468146402474
:100320001BE02846414647462246FFF747FF534613
:100330005A46C01A914110D311461846224600F081
:1003400017FA2D1A67EB01084F46224601200021BB
:1003500000F00EFA17EB00094E41201EA4F1010433
:10036000DFDC484631462A464346BDE8F09F002977
:10037000A8BF7047401C490008BF20F0010070472B
:1003800010B4B0FA80FC00FA0CF050EA010404BF8B
:1003900010BC704749B1CCF1200421FA04F411FAE1
:1003A0000CF118BF012121430843A3EB0C01CB1D25
:1003B0004FEA00614FEA102042BF002010BC704796
:1003C00000EBC35010440029A4BF10BC7047401C70
:1003D000490008BF20F0010010BC70472DE9FE4F16
:1003E000804681EA0300C00F0C46009021F00041D6
:1003F00023F00045B8EB0200A94105D24046214652
:1004000090461C460B46024623F00040104347D05E
:10041000270DC7F30A00C3F30A510290401A019056
:1004200040286BDAC3F3130040F4801B0098924617
:1004300020B10023D2EB030A63EB0B0B0198594662
:10044000C0F14002504600F093F906460D46504672
:100450005946019A00F09BF910EB08006141002415
:1004600087EA115284EAE7731A4340D0009A62B3D4
:10047000019A012A4FEA075215DC001B61EB0201C9
:100480004FF0004202EA0752CDE90042001C41F55C
:10049000801132462B4600F09BF903B0BDE8F08F87
:1004A00040462146F9E7001B61EB0201001C41F5C3
:1004B000801300185B412018A2F5001747EB0301D9
:1004C00040EAD570B6196D4111E06D084FEA360665
:1004D00045EAC0754FEA0752001B61EB0201001CA0
:1004E00041F5801149084FEA300000195141324668
:1004F0002B4603B0BDE8F04F00F05BB90098012235
:1005000040000023D0EB020263EBE0730098214629
:100510004FEAE074B8EB000061EB0401E9E783F017
:1005200000435BE781F0004158E72DE9FE4F81EA87
:10053000030404F0004421F0004100944FF0000B4C
:1005400023F0004350EA01045ED052EA03045BD07A
:10055000C3F30A54C1F30A552C44A4F2F3340194B2
:10056000A0FB0254C1F3130141F48011C3F3130340
:1005700043F4801301FB024400FB034E840A970AF4
:1005800044EA815447EA8357A4FB076802958D0A21
:1005900005FB07854FEA932C04FB0C542705029DAD
:1005A0004FEA065847EA1637B5EB08056EEB070C1D
:1005B000870E920E47EA811742EA8312A7FB0201D7
:1005C000B6EB0B0164EB00042B0D43EA0C335E1811
:1005D00044EB1C50DA465146E7FB0201C5F3130415
:1005E0004FEA0B3343EA14534FEA0432019C43EAC7
:1005F0000603A4F10C040294009CCDE900B400F0C1
:10060000E7F803B0BDE8F08F00200146F9E72DE9D7
:10061000F04D81EA030404F0004B21F0004514463C
:100620004FF0000A23F0004150EA050220D054EABE
:1006300001021DD0C5F30A570246C5F31303C1F3E7
:100640001300C1F30A5640F4801543F48013A7EB5E
:100650000608101BD64608F2FD3873EB050002D3DE
:1006600008F1010801E092185B41B8F1000F03DACC
:1006700000200146BDE8F08D00204FF480110646B1
:1006800084460EE0171B73EB050705D3121B63EBC3
:10069000050306434CEA010C49084FEA3000921862
:1006A0005B4150EA0107EDD152EA030012D082EA21
:1006B000040083EA0501084305D0101BAB4106D2B4
:1006C0000122002306E000224FF0004302E06FF019
:1006D000010253101AEB06004CEB085110EB0A0014
:1006E00041EB0B01BDE8F04D00F063B8C1F30A52D5
:1006F000C1F3130140F2FF3341F480119A4202DA50
:1007000000200146704740F233439A42A2F233423E
:1007100002DC5242FFF752BD00F02AB830B5041E89
:1007200071F1000404DB4FF00044404264EB01012E
:10073000141E73F1000405DB1C464FF000435242C7
:1007400063EB0403994208BF904230BD064C074D4D
:1007500006E0E06840F0010394E807009847103491
:10076000AC42F6D3FFF7C6FC243700084437000834
:10077000202A04DB203A00FA02F100207047914061
:10078000C2F1200320FA03F3194390407047202A56
:1007900006DBCB17203A41FA02F043EAE07306E0A9
:1007A00041FA02F3D040C2F12002914008431946B9
:1007B000704710B5141E73F1000408DA401C41F1B3
:1007C000000192185B411A4301D120F0010010BDD5
:1007D0002DE9F04D92469B4611B1B1FA81F202E04B
:1007E000B0FA80F220329046FFF7C2FF04460F466F
:1007F00040EA0A0041EA0B0153465A46084313D027
:10080000114653EA010019D0C8F140025046FFF7E3
:10081000D5FC05460E46504659464246FFF7A8FF0E
:10082000084305D0012004E020463946BDE8F08D9C
:100830000020054346EAE0762C4337430A986305D7
:10084000E40AA0EB08000022FD0A44EA47540A30FB
:1008500002D500200146E9E7010510196941DDE9EB
:10086000084500196941BDE8F04DA2E7FEE7000028
:10087000014800F0BBB80000F0020020014800F081
:10088000B5B80000AC020020014800F0AFB800008D
:1008900034030020014800F0A9B8000078030020CC
:1008A0007047704710B501F0A1F80B4C020C2146BF
:1008B000E0600A70A0EB0242120A4A7088700028B9
:1008C00009D0FFF7F4FC04F118010968FFF7B1FC47
:1008D000FFF7F2FCE06010BD2000002010B501F031
:1008E000D3F80C4C020C214620610A70CA1C127805
:1008F000A0EB0242120A4A708870002809D0FFF764
:10090000D6FC04F118014968FFF793FCFFF7D4FC0B
:10091000206110BD2000002010B501F003F90C4C3F
:10092000020C214660610A708A1D1278A0EB024217
:10093000120A4A708870002809D0FFF7B8FC04F149
:1009400018018968FFF775FCFFF7B6FC606110BD00
:100950002000002010B590F821100024022903D0B7
:100960000421816301243DE001680A6822F00E023F
:100970000A6001680A6822F001020A601A4A0168E6
:10098000914201D1012121E0174A1432914201D153
:1009900010211BE0144A2832914201D1891515E03B
:1009A000114A3C32914201D189140FE00E4A503273
:1009B000914202D14FF4803108E00B4A64329142F7
:1009C00002D14FF4801101E04FF08071064A083ADD
:1009D0005160012180F82110002180F82010416B26
:1009E00001B18847204610BD080002402DE9F05FA4
:1009F000C16B0C6801680B68D0F840C0042202FA91
:100A00000CF2494DDFF824A1494E4A4FDFF828B1D6
:100A1000DFF828E122422CD05A072AD50A6892062C
:100A200003D40A6822F004020A600168A94201D1D5
:100A3000042219E0514501D1402215E0B14202D112
:100A40004FF4806210E0B94202D14FF480420BE0D3
:100A5000594502D14FF4802206E0714502D14FF48E
:100A6000800201E04FF080622F4908394A60C16A74
:100A70003BE04FF0020808FA0CF818EA040F4FF0B8
:100A800000094FF0010235D05FEA837832D50B6858
:100A90009B0605D40B6823F00A030B6080F8212025
:100AA0000168A94201D1022219E0514501D1202259
:100AB00015E0B14202D14FF4007210E0B94202D108
:100AC0004FF400520BE0594502D14FF4003206E0DA
:100AD000714502D14FF4001201E04FF0007212494B
:100AE00008394A6080F82090816A00291AD0BDE850
:100AF000F05F0847082505FA0CF5254212D01B07C0
:100B000010D50B6823F00E030B6090F84010C36BF8
:100B100002FA01F15960826380F8212080F8209068
:100B2000016BE2E7BDE8F09F080002401C000240B4
:100B30003000024044000240580002406C00024075
:100B400030B528B308C8134914221944B1FBF2F197
:100B50008900C16310498163022141771A6843F615
:100B6000F0718A43D0E900142143D0E902452C43B7
:100B7000214304692143446921438469214311438A
:100B8000196000214163012242770177084630BD98
:100B9000012030BDF8FFFDBF000002402DE9F84FF5
:100BA000DFF8B891002409F1040A0AF1040B234686
:100BB0000F270BF1040EC9E00125A5402A40AA42E7
:100BC0007DD1674ED1F804C0ACEB0608B44532D0F5
:100BD00014DCBCF1030F3AD009DCBCF1000F2AD0C1
:100BE000BCF1010F1CD0BCF1020F31D11DE0BCF1F2
:100BF000110F17D0BCF1120F2AD119E0B8F5881FD8
:100C000019D006DCB8F5803F15D0B8F5801F1FD18C
:100C100011E0B8F5001F0ED0B8F5041F18D10AE096
:100C2000CB6815E0CB681B1D12E0CB6808330FE0E2
:100C3000CB680C330CE08B682BB1012B4FF0080311
:100C400003D0456104E0042302E0056100E00023D5
:100C5000FF2A01D8064601E000F104064FEA8405A8
:100C600001D9A5F12005D6F8008007FA05FC28EA8D
:100C70000C0803FA05F548EA0508C6F800804D6837
:100C8000ED0062D5374DAE6946F00106AE61AD6943
:100C900024F0030605F001050095334D06EB050C25
:100CA000DCF80850A607360F07FA06F825EA08050B
:100CB000DFF8B880404503D14FF0000817E044E06A
:100CC000DFF8AC80404502D14FF001080FE0DFF8BB
:100CD000A480404502D14FF0020808E0DFF8988078
:100CE000404502D14FF0030801E04FF0040808FA34
:100CF00006F848EA0508CCF808804D68D9F8006085
:100D0000ED034D4601D5164300E096432E604D6835
:100D1000DAF80060AD03554601D5164300E096436E
:100D20002E604D68DBF80060ED025D4601D516438C
:100D300000E096432E604D68DEF80060AD02754617
:100D400001D5164300E096432E60641C0D682A46C8
:100D5000E5407FF431AFBDE8F88F000000040140AA
:100D60000000111000100240000001400008014086
:100D7000000C014000100140001401408068084050
:100D800000D0012070470AB1016170470904FBE7F8
:100D900001488068704700005400002002488168C4
:100DA000027811448160704754000020074810B554
:100DB000016841F010010160032000F095F8002067
:100DC00000F006F800F03EF8002010BD00200240C0
:100DD00000B5014687B00022192000F065F81920FF
:100DE00000F054F81348816941F400618161806921
:100DF00005A900F400600690684600F01DF900F0B7
:100E00004BF90D490D4AB0FBF1F10D48491E026046
:100E1000416040F2E7320021C0E90321816000F027
:100E200013FB10B1012007B000BD054800F028FBFE
:100E3000F9E700000010024040420F00002C014082
:100E4000100600200F4808B5816941F00101816159
:100E5000816901F001010091C16941F08051C161D6
:100E6000C069002200F0805000900F21901E00F019
:100E70001BF80548416821F0E06141F000714160D4
:100E800008BD00000010024000000140002809DBFE
:100E900000F01F02012191404009800000F1E02094
:100EA000C0F8001170470000F0B40E4B1B680C46F0
:100EB000C3F30223C3F10705042D00D90425191D2E
:100EC000072901D2002300E0DB1E012606FA05F106
:100ED000491E214099409E40761E16403143F0BC89
:100EE00001F078B90CED00E0064900F0070208684F
:100EF0004FF6FF03184040EA0220034A10430860FF
:100F0000704700000CED00E00000FA052DE9F04705
:100F10000F46050061D0434E306800F00700B8422C
:100F200009D2306820F0070038433060306800F0A4
:100F30000700B84251D128683B4C810712D54007C1
:100F400003D5606840F4E06060602878000703D54E
:100F5000606840F4605060606068A96820F0F0004C
:100F6000084360602878C00728D06868012810D03E
:100F70002168022810D0890700292EDA616821F043
:100F8000030101436160FFF703FF804641F28839A6
:100F90000DE021688903EFE78901EDE7FFF7F8FE2F
:100FA000A0EB0801494502D90320BDE8F08760683D
:100FB000696800F00C00B0EB810FEFD1306800F0F1
:100FC0000700B8420BD9306820F007003843306082
:100FD000306800F00700B84201D00120E5E728782A
:100FE000400705D56068E96820F4E0600843606068
:100FF0002878000706D56068296920F4605040EA27
:10100000C100606000F058F86168084AC1F303113C
:10101000515CC8400649086006480068FFF7D8FEE2
:101020000020C2E700200240001002400037000804
:1010300060000020580000200F2202600C4A536814
:1010400003F003034360536803F0F00383605368C5
:1010500003F4E063C36052684FF4E06303EAD20232
:1010600002610448006800F0070008607047000053
:101070000010024000200240044805490068496809
:10108000044AC1F30221515CC8407047600000204F
:1010900000100240103700080448054900684968FC
:1010A000044AC1F3C221515CC8407047600000206F
:1010B000001002401037000812A185B00FC98DE85A
:1010C0000F0014A0144A006804905168134801F0FE
:1010D0000C03042B10D0082B0ED1C1F38343C9039A
:1010E0001DF803000AD5516804AAC1F34041515CC0
:1010F0000A4A5043B0FBF1F005B070470849484335
:10110000FAE7000002030405060708090A0B0C0DA4
:101110000E0F1010010200000010024000127A00B1
:1011200000093D002DE9F84F040070D02078C04D33
:10113000C00749D06868C0F38100012807D06868FB
:10114000C0F38100022809D16868C00306D5286869
:10115000800339D560680028E7D035E06068B0F5D5
:10116000803F0BD010B1B0F5A02F11D0286820F42B
:1011700080302860286820F4802002E0286840F44D
:1011800080302860606890B1FFF702FE06460AE0F2
:10119000286840F480202860F0E700BFFFF7F8FDE2
:1011A000801B642873D828688003F7D50CE0FFF70C
:1011B000EFFD064605E000BFFFF7EAFD801B64284F
:1011C000F0D828688003F7D420789A4E80074FF033
:1011D00001094FF0000839D5686810F00C0F07D0EE
:1011E0006868C0F38100022809D16868C00306D48A
:1011F0002868800714D52069012808D110E02069EB
:10120000B0B1C6F80090FFF7C3FD074605E00AE15C
:10121000FFF7BEFDC01B0228C4D828688007F7D599
:101220002868616920F0F80040EAC10028600DE0FC
:10123000C6F80080FFF7ACFD074604E0FFF7A8FD05
:10124000C01B022823D828688007F7D4207800071D
:101250002CD57948A169D9B1C0F80090FFF798FD65
:10126000074604E0FFF794FDC01B02280FD8686A08
:101270008007F7D571484FF4FA510068B0FBF1F0E0
:10128000009000BF0098411E0091FAD20EE080E06D
:10129000C0F80080FFF77CFD074604E0FFF778FD0B
:1012A000C01B022875D8686A8007F7D420784007E9
:1012B00060D5E8690027C00008D4E86940F0805094
:1012C000E861E869012700F0805000905C480168FF
:1012D000C90513D40168834641F480710160FFF7AA
:1012E00057FD824606E000BFFFF752FDA0EB0A0063
:1012F00064284ED8DBF80000C005F5D5E068012869
:101300000AD008B1052813D0286A20F0010028620D
:10131000286A20F0040002E0286A40F001002862F8
:10132000E06841F2883B98B1FFF732FD82460BE05E
:10133000286A40F004002862EEE700BFFFF728FDAE
:10134000A0EB0A0159455AD8286A8007F6D50CE067
:10135000FFF71EFD824605E0FFF71AFDA0EB0A012C
:1013600059454CD8286A8007F6D41FB1E86920F0A7
:101370008050E861E06988B36968C1F3810102299E
:1013800044D00228C6F8608004D0FFF701FD04466F
:1013900038E034E0FFF7FCFC074604E0FFF7F8FC18
:1013A000C01B02282BD828688001F7D4206AB0F52A
:1013B000803F05D16868A16820F400300843686068
:1013C000D4E908010843696821F47411084368608E
:1013D000C6F86090FFF7DCFC044606E025E000BF9D
:1013E000FFF7D6FC001B022809D828688001F7D532
:1013F0001BE000BFFFF7CCFC001B022802D9032032
:10140000BDE8F88F28688001F4D40EE00128F7D0F9
:101410006868226A00F48031914204D1616A00F464
:101420007010884201D00120EAE70020E8E70000C0
:10143000001002400000424280044242600000204E
:10144000007000407047704710B5040003D094F856
:101450003D0010B107E0012010BD002084F83C00E1
:10146000204600F00CF8022084F83D00211D206881
:1014700000F0D2FC012084F83D00002010BD704730
:101480000168CA6842F00102CA600068816801F020
:101490000701062903D0016841F001010160002025
:1014A0007047704770B50446006801694FF0000549
:1014B000C943890715D4C168C943890711D4E91EF6
:1014C000016101202077206880698007204602D0D2
:1014D000FFF7E7FF04E000F098F8204600F096F8E8
:1014E000257720680169C943490717D4C168C943F2
:1014F000490713D46FF004010161022020772068AE
:10150000806910F4407F204602D0FFF7CAFF04E054
:1015100000F07BF8204600F079F825772068016913
:10152000C943090716D4C168C943090712D46FF02B
:1015300008010161042020772068C06980072046E7
:1015400002D0FFF7AEFF04E000F05FF8204600F0A5
:101550005DF8257720680169C943C90617D4C168B9
:10156000C943C90613D46FF0100101610820207728
:101570002068C06910F4407F204602D0FFF791FF39
:1015800004E000F042F8204600F040F8257720689B
:101590000169C943C90708D1C168C943C90704D152
:1015A000891E0161204600F033F820680169C943B3
:1015B000090609D4C168C943090605D46FF0800142
:1015C00001612046FFF73EFF20680169C9434906D3
:1015D00009D4C168C943490605D46FF040010161CF
:1015E000204600F01FF820680169C94389060BD422
:1015F000C168C943890607D46FF020010161204604
:10160000BDE87040FFF71FBF70BD70477047000016
:1016100000680349884201D1FFF7C0BB7047000052
:10162000002C01407047704770B50268044610688E
:10163000D168536910F00F0F51D003F0010501F488
:10164000907635435DD0C20705D0CA0503D5E26B5D
:1016500042F00102E263420705D5DA0703D0E26BEC
:1016600042F00202E263820705D5DA0703D0E26B9B
:1016700042F00402E263020705D5DA0703D0E26B09
:1016800042F00802E263E26B002A34D0800604D5FF
:10169000880602D5204600F00BFC20684069E16B0B
:1016A000C0F3801001F008010143204624D000F06F
:1016B000F1FB2068416949061AD5416921F04001D2
:1016C0004161606BA0B11B494163606BFFF742F958
:1016D000002810D0606B416BBDE87040084783065E
:1016E0000FD58B060DD52046BDE8704000F0E0BB5D
:1016F0002046FFF798FF70BDFFF795FF0020E063DD
:1017000070BD030606D50B0604D52046BDE8704023
:1017100000F076BC4006F3D54806F1D5D1682046E6
:1017200021F04001D160202184F8391000F05CF9EB
:1017300070BD0000851E000870B5040004D094F848
:101740003900002510B106E0012070BD84F8385042
:10175000204600F023F8242084F839002068C1686E
:1017600021F40051C160204600F0EEFB20680169C1
:1017700021F4904101612068416921F02A01416111
:101780002068C16841F40051C160E563202084F8FD
:10179000390084F83A00002070BD00002DE9F041C6
:1017A00086B0002500950195029503950446DFF863
:1017B00058C10368554802210322554F80264FF037
:1017C000100863454BD1836943F480438361836987
:1017D00003F480430493836943F0040383618069C5
:1017E000039200F0040004900802CDE9000169466C
:1017F0003846FFF7D3F9F000CDE9000569463846D1
:101800000295FFF7CBF9444F4248C7E90005C7E905
:1018100002563D617D61BD613846FD61FFF790F97B
:1018200008B1FFF73EF867637C623C4F3948C7E96F
:1018300002563D617D61BD611438FD61C7E9000854
:101840003846FFF77DF908B1FFF72BF82763002230
:10185000052125207C62FFF727FB25204FE0DFF8DC
:10186000C0C063454DD1C36943F40033C361C3694C
:1018700003F400330493836943F0040383618069B4
:10188000039200F0040004900420CDE900016946B1
:101890003846FFF783F90820CDE900056946384648
:1018A0000295FFF77BF91B481E4F1430C7E900056E
:1018B000C7E902563D617D61BD613846FD61FFF7B4
:1018C0003FF908B1FEF7EDFF67637C62164F1148E0
:1018D000C7E902563D617D61BD612830FD61C7E900
:1018E00000083846FFF72CF908B1FEF7DAFF276346
:1018F0000022052126207C62FFF7D6FA2620FFF77A
:10190000C5FA06B0BDE8F081003801400010024081
:101910000008014058000240AC020020F002002004
:1019200000440040340300207803002070472DE974
:10193000F843044690F839001F4616460D46202805
:1019400050D1A5B19EB194F8380001284AD00120A9
:1019500084F838004FF00008C4F83C80212084F857
:101960003900FFF715FAA6848146E68426E00120B7
:10197000BDE8F883E08C401EE084A0684B46B0F5DB
:10198000805F4FF000024FF080012046009703D0A7
:1019900000F067FBE8B90DE000F063FBC8B92888E8
:1019A0002168C0F308004860206908B16D1C05E09B
:1019B000AD1C03E0216815F8010B4860E08C00289D
:1019C000D8D14B46002240212046009700F049FB29
:1019D00008B10320CCE7202084F8390084F838804F
:1019E0000020C5E70220C3E7704700002DE9F04161
:1019F000234D002220212846FFF7C5F90024214F5E
:101A0000264610212846FFF7B9F938B9012001F020
:101A10005DF810212846FFF7B1F910B1761CBE42DF
:101A2000EFDB012001F052F8002601222021284698
:101A3000FFF7A9F9012001F049F8640000222021F4
:101A40002846FFF7A0F910212846FFF797F901284B
:101A500000D1641C761CF6B2182EE6D30122202198
:101A60002846FFF790F9022001F030F884F40004D2
:101A7000002220212846FFF786F92046BDE8F081A4
:101A80000008014040420F002DE9F041234D0022A3
:101A900080212846FFF777F90024214F2646402170
:101AA0002846FFF76BF938B9012001F00FF8402103
:101AB0002846FFF763F910B1761CBE42EFDB012028
:101AC00001F004F80026012280212846FFF75BF987
:101AD000012000F0FBFF6400002280212846FFF770
:101AE00052F940212846FFF749F9012800D1641C2A
:101AF000761CF6B2182EE6D3012280212846FFF785
:101B000042F9022000F0E2FF84F4000400224021A8
:101B10002846FFF738F92046BDE8F081000801406B
:101B200040420F002DE9F041234D002202212846BA
:101B3000FFF729F90024214F264601212846FFF707
:101B40001DF938B9012000F0C1FF01212846FFF737
:101B500015F910B1761CBE42EFDB012000F0B6FF94
:101B60000026012202212846FFF70DF9012000F08E
:101B7000ADFF6400002202212846FFF704F901218D
:101B80002846FFF7FBF8012800D1641C761CF6B24A
:101B9000182EE6D3012202212846FFF7F4F802208E
:101BA00000F094FF84F40004002202212846FFF78D
:101BB000EAF82046BDE8F081000C014040420F00E9
:101BC000FEE700002DE9F04186B00024274800948C
:101BD000019402940394816941F02001816181693B
:101BE00001F020010491816941F004018161816962
:101BF00001F004010491816941F00801816180696B
:101C00001B4F00F0080004900022A0213846FFF787
:101C1000BAF8DFF86080002202214046FFF7B3F8EF
:101C20005020CDE90004694638460294FEF7B6FF1D
:101C3000A02001250226CDE90005CDE9024669462E
:101C40003846FEF7ABFFCDE90054694640460294A2
:101C5000FEF7A4FFCDE90065CDE90246694640469E
:101C6000FEF79CFF06B0BDE8F081000000100240C6
:101C700000080140000C0140FEE700000FB44FF4E3
:101C8000FA6110B503AB0848029A00F091FA0648D1
:101C9000FEF7C8FA82B24FF6FF7303490348FFF715
:101CA00046FE10BC5DF814FB480100206C020020C9
:101CB00070470000034C00BF00F068F8206800F097
:101CC000A8FFF9E75000002010B5502080F31188DC
:101CD000BFF34F8FBFF36F8F01F03EFC18B1044983
:101CE0004FF080500860002080F3118810BD000084
:101CF00004ED00E030B58FB028216846FEF787FA82
:101D000014210AA8FEF783FA01210804CDE9001086
:101D10000024029402250491CDE907504FF4E0100D
:101D200009906846FFF7FEF90F20CDE90A05680221
:101D3000CDE90C4002210AA80E94FFF7E7F80FB096
:101D400030BD00000D48016841F0010101604168AB
:101D50000B4A1140416001680A4A11400160016864
:101D600021F480210160416821F4FE0141604FF4BB
:101D70001F0181600449C0030860704700100240E1
:101D80000000FFF8FFFFF6FE08ED00E07CB501F073
:101D9000FBFA11480624CDE900404FF4807500237A
:101DA0002A460EA1124801F079FB0B480023001DC2
:101DB000CDE900402A460FA1124801F06FFB01F067
:101DC0002FFC002806D1104928050860BFF34F8F6B
:101DD000BFF36F8F7CBD0000180000205072657348
:101DE000737572655F7265636569766500000000F2
:101DF00015210008426C7565746F6F74685F7365B8
:101E00006E740000E520000804ED00E00148FFF7D3
:101E100049BB000010060020F0B50268164B174CB5
:101E2000174D4FF08047984205D0B84203D0A042EA
:101E300001D0A84203D122F070064A68324398428A
:101E400005D0B84203D0A04201D0A84203D122F469
:101E50004074CA6822434C6922F080022243026027
:101E60008A68C2620A688262984201D10969016384
:101E700001214161F0BD0000002C01400004004040
:101E80000008004010B5406A0021C185C184FFF7F9
:101E9000CAFB10BD0168CA6822F49072CA6001686A
:101EA0004A6922F001024A61202180F83A10704705
:101EB00010B590F83A10222901D0022010BD816897
:101EC000B1F5805F11D00169002901681FD0496810
:101ED00001F07F03816A4A1C82620B70C18D491E2A
:101EE0000904090CC18518D02BE00269816A002A17
:101EF0000268526805D0D2B20A80816A491C8162A8
:101F0000ECE7C2F308020A80816A891CF7E74A6895
:101F1000816A4B1C83620A70E0E70168CA6822F09C
:101F20002002CA600168CA6822F48072CA6001682F
:101F30004A6922F001024A61202180F83A10FFF735
:101F4000F5FC002010BD00002DE9F04104460068BA
:101F50000169E26821F44051114301612169A068DF
:101F60000843616908432168CA6841F20C639A43D7
:101F70000243CA6020684169A26921F4407111439B
:101F800041611E49206864253226884202D1FFF74C
:101F900083F801E0FFF770F800EBC00101EB0011DE
:101FA00060686FF018078000B1FBF0F2B2FBF5F249
:101FB000B1FBF0F37A4303EB8202B1FBF0F306EBE3
:101FC0000212B2FBF5F2B3FBF5F302F0F00202EB02
:101FD0000312B1FBF0F3B1FBF0F0B0FBF5F0784386
:101FE00003EB800006EB0010B0FBF5F0216800F079
:101FF0000F0010448860BDE8F08100000038014007
:1020000090F83910212901D0022070478168B1F57C
:10201000805F016A0BD04A1C026202680978516035
:10202000C18C491E0904090CC1840ED017E009882F
:102030000268C1F30801516001690029016A02D0F8
:10204000491C0162ECE7891CFBE70168CA6822F0C1
:102050008002CA600068C16841F04001C160002090
:1020600070472DE9F041984617460E460446069DF6
:102070001DE0681C1BD02DB1FEF78AFEA0EB080006
:10208000A84214D92068C16821F4D071C1602068C9
:10209000416921F001014161202084F8390084F870
:1020A0003A00002084F838000320BDE8F081206861
:1020B000006836EA000004D00020B842D9D00020E1
:1020C000F3E70120F9E700000148FFF7ADBA00008F
:1020D0002C0200200148FFF7A7BA00006C02002084
:1020E000FEE700000A4C207BC0070BD104F10C0076
:1020F00000F080F830B101F029FA206104F10C0001
:10210000AFF3008002486169103001F06BF8F9E725
:10211000000000201C4C2078C00709D1204600F0A8
:1021200069F828B101F012FA60602046AFF3008030
:10213000DFF85880164DDFF85C90174EDFF85CA092
:10214000174F00BFFEF7AEFBFEF7C8FBFEF7E4FB40
:10215000D8F8001013A0A1F5964145392960D9F8A7
:102160000020A2F596420F3A3260DAF80030A3F56B
:102170009A43CE3B3B60FFF781FD0348A168001DF9
:1021800001F030F8DEE70000000000202C00002005
:1021900044000020300000204800002034000020CF
:1021A0004C00002025645F25645F25640D0A000053
:1021B0007CB5491E1C461546CDE90001044B6A4614
:1021C0002146284600F0E0F8009A002111707CBDFD
:1021D000B72A00080907090E002804DB00F1E020F7
:1021E00080F80014704700F00F0000F1E02080F844
:1021F000141D7047016809B100207047012101607A
:102200000846704702E008C8121F08C1002AFAD128
:1022100070477047002001E001C1121F002AFBD166
:10222000704700002DE9FF5FDDE90220010DDDF8B8
:1022300038B0024318D044F61050A1F2FF314143A8
:102240000D140F98012820D0A5EB0B00401C5FEA6D
:10225000000A4FF00004474EDFF81C91A04650469C
:1022600016D5CAF1000728E00F98012443A20128DF
:1022700008D0002100980F9BC0E90021C0E902436B
:10228000BDE8FF9F6FEA0B01F4E7CBF10000DEE74A
:10229000074612E0F80707D0224633464046494633
:1022A000FEF743F9804689462246334610461946D2
:1022B000FEF73BF904460E467F10002FEAD1DDE918
:1022C0000201BAF1000F42464B4602DAFEF72DF941
:1022D00001E0FEF79CF904460E460022284BFEF76B
:1022E0001DFA03D84FF0FF30014607E00022254BCE
:1022F00020463146FEF772F8FEF7F8F9102409E09F
:10230000002C0ADB0A220023FEF700F8019B303282
:102310001A55641E50EA0102F2D1641C019AC4F1FC
:10232000110314440F9A012A03D0012208430DD14E
:102330000AE0084304D000204FF0110B0F9080E713
:10234000A3EB0B056D1E0DE05B4504DD4FF00002B5
:1023500005F1010504E003DA4FF00002A5F10105E3
:10236000002AECD000980F99C0E90231C0E900457D
:1023700086E70000000024400000F03F300000002D
:102380000000F0430000E03F2DE9FF4F95B09B4671
:102390008946064600250FE2252877D100242746E6
:1023A000F84A0121059400E0044316F8013F203B60
:1023B00001FA03F01042F7D130782A2811D06FF0DB
:1023C0002F033078A0F13002092A16D8059A44F07C
:1023D000020402EB820203EB42021044761C0590D9
:1023E000EFE759F8042B0592002A03DA504244F42F
:1023F0000054059044F00204761C30782E2816D143
:1024000016F8010F44F004042A280DD06FF02F02B3
:102410003078A0F13003092B09D807EB870302EBD2
:102420004303C718761CF3E759F8047B761C307811
:102430006C280FD006DC4C2817D068280DD06A28ED
:1024400014D104E0742810D07A280FD10DE044F4A0
:1024500000140AE044F4801401E044F4401472785B
:10246000824202D104F58014761C761C30786628EE
:102470000BD013DC582877D009DC002875D045280C
:10248000F6D04628F4D047281AD19DE118E06328F9
:1024900035D0642879D0652812D195E1702873D0A1
:1024A00008DC6728F1D069286FD06E280DD06F281E
:1024B00006D1B5E073282CD0752875D0782874D053
:1024C0005A46179990476D1C75E1C4F302500228D3
:1024D00009D003280DD0D9F8001004280DD00D60C4
:1024E00009F1040967E1D9F80010EA17C1E90052BF
:1024F000F6E7D9F800100D80F2E70D70F0E719F853
:10250000041B8DF8001000208DF80100EA46012020
:1025100003E059F804AB4FF0FF3061074FF00001C2
:1025200002D40DE008F101018846B9420FDA804576
:10253000F8DB1AF808100029F4D108E008F10101CD
:1025400088468142FADB1AF808100029F6D105986E
:102550005B46A0EB080721463846179A00F094FA2C
:10256000284400EB080507E04DE029E10DE01AF8EA
:10257000010B5A4617999047B8F10108F7D25B460C
:1025800021463846179A13E142E00A220092C4F32A
:1025900002524FF0000A022A08D059F804CB032A4D
:1025A0004FEAEC710AD00DE029E02AE009F10701B9
:1025B00021F00702F2E802C1914609E00FFA8CFC13
:1025C0004FEAEC71042A03D14FFA8CFC4FEAEC710C
:1025D000002907DA0A460021DCF1000C61EB020158
:1025E0002D2202E0220504D52B228DF804200122A1
:1025F00003E0E20701D02022F7E7904659E00A21E4
:1026000002E010220DE010214FF0000A00910BE0D3
:1026100010224FF0000A44F004040827009203E05F
:1026200008224FF0000A0092C4F30252022A05D099
:1026300059F804CB0021032A08D009E009F1070169
:1026400021F00702F2E802C1914605E01FFA8CFC76
:10265000042A01D10CF0FF0C4FF00008220728D506
:10266000702806D0009B83F0100353EA0A0305D0BC
:102670000EE040228DF80420012208E05CEA01020D
:1026800006D030228DF804208DF8050002229046F5
:10269000009B83F0080353EA0A030AD15CEA0102B3
:1026A00001D1620705D530228DF804204FF00108D2
:1026B0007F1E582804D034A003900EA802900DE08D
:1026C00036A0F9E753466046009AFDF71FFE8446A0
:1026D0000398825C0298401E029002705CEA01003E
:1026E000F0D1029806A9081A00F1200A600702D565
:1026F00024F4803400E00127574502DDA7EB0A00EF
:1027000000E0002000EB0A01009005984144401AC7
:102710000590E00306D45B462146179A059800F021
:10272000B3F90544002706E001A85A46C05D179991
:1027300090476D1C7F1C4745F6DBE0030CD55B46DC
:102740002146179A059800F09FF9054404E03020CF
:102750005A46179990476D1C0099481E0090002911
:10276000F5DC08E0029802995A460078491C02916B
:10277000179990476D1CBAF10001AAF1010AF1DC2A
:1027800065E1000009280100303132333435363735
:1027900038396162636465660000000030313233AD
:1027A000343536373839414243444546000000004D
:1027B00000F058F90544761C307800287FF4ECAD21
:1027C00019B02846BDE8F08F620700D4062709F14A
:1027D000070222F0070CFCE80223E14603F0004860
:1027E0005FEA080C02D00FF2702C0DE05FEA045C87
:1027F00002D50FF2682C07E05FEAC47C02D00FF22A
:10280000602C01E0AFF2700C4FF0FF3823F0004372
:10281000CDF850C065280CD006DC452809D04628E4
:102820001DD047283DD13DE0662818D067287ED1CD
:1028300038E00021112F01DB112000E0781CCDE9E8
:10284000000106A90EA8FFF7EDFCDDE90F010E9AC5
:1028500003910021009207F1010A04914DE04FF02D
:1028600000400097CDE9011006A90EA8FFF7DAFC99
:10287000DDE90F0203920E9B11990022DDF80CA0F6
:102880000093049211B9791C00EB010AB7EB0A001E
:1028900004D4C0F1FF3007F1010A0490AAEB07004D
:1028A000019044E0012F00DA01270021112F01DD02
:1028B000112000E03846CDE9000106A90EA8FFF777
:1028C000B1FCDDE90F010E9A039100210491009201
:1028D000BA4621070CD40399514500DA8A46BAF169
:1028E000010F05DD009AAAF10101515C302908D0E1
:1028F000B84202DA10F1040F06DA0121CDE9011025
:1029000015E0AAF10101E9E7002805DC049901447A
:102910000491AAEB000102E0411C514500DD8A460A
:102920000499401A401C01904FF00040029020078B
:1029300004D40198504501DBCDF8048000208DF8C7
:102940004F0002980DF14F07B0F1004F25D02B201A
:102950000E9002984FF0020800280CDA40420290D4
:102960002D200E9007E00A210298FDF7B9FC3031C6
:10297000029007F8011DB8F10001A8F10108F2DC8E
:1029800002980028EFD1791E0E980870307800F078
:10299000200040F0450007F8020D12A8C01B00F10E
:1029A00007081498007800B1012000EB0A01019893
:1029B00001EBE07105984144401A401E0590E00388
:1029C00006D45B462146179A059800F05DF8054449
:1029D0001498007818B15A46179990476D1CE00377
:1029E00024D55B462146179A059800F04DF805441A
:1029F0001CE00498002807DBDDE90301884203DDC1
:102A00000098405C179901E0179930205A4690478A
:102A1000049805F10105401C04900198401E0190A6
:102A200004D12E205A46179990476D1CBAF1000127
:102A3000AAF1010ADDDC05E017F8010B5A461799E7
:102A400090476D1CB8F10001A8F10108F4DC5B4669
:102A50002146179A0598ABE62D0000002B000000D8
:102A6000200000002DE9F041044600251E461746CF
:102A7000880404D405E039462020B0476D1C641E4C
:102A8000F9D52846BDE8F0812DE9F041044600253E
:102A90001E469046C80301D5302700E02027880451
:102AA00004D505E041463846B0476D1C641EF9D593
:102AB0002846BDE8F0814A68002A06D00A68531CFF
:102AC0000B6010704868401E4860704701E0401E6F
:102AD000C0B20028FBD1704788B0FEF767F9FFF756
:102AE00009F9FFF76FF82B4829494FF416550024D0
:102AF0000160C0E901540C26C460C0E90446846149
:102B0000C461FEF719FE2348234940300160C0E943
:102B10000154C460C0E904468461C461FEF70CFE40
:102B20001E48416941F0010141614069002200F005
:102B30000100079005210E20FEF7B6F90E20FEF7E2
:102B4000A5F9002205210F20FEF7AEF90F20FEF7B0
:102B50009DF9002205211020FEF7A6F91020FEF7AE
:102B600095F9002205211120FEF79EF91120FEF7AC
:102B70008DF91C220A496846FDF730FB00216846A2
:102B800000F01DF80749086000F014F8FEE70000A7
:102B9000003801402C020020004400400010024098
:102BA000E43600085000002001460020842900D0AF
:102BB000C81C704710B500F0B1FB002010BD7FB5F8
:102BC0000D4604464169B0F9080081B1A16971B1AF
:102BD000FFF7EAFFD4E905128DE80700D4E90010F9
:102BE0002B46226900F087FC039004B070BDFFF70C
:102BF000DBFF03A9CDE90001208A2B4682B2D4E98C
:102C0000001000F04BFC012801D00020EDE70398F4
:102C1000EBE710B500F02CFB002010BD2DE9F041D2
:102C2000184C0F46054666692068001D00F016FA2C
:102C300038B9206890F82C1001208840A1698143A0
:102C4000A161681C07D137B12168BDE8F0410E4889
:102C5000091D00F047BA20683544B5424560216837
:102C600005D2A068BDE8F041091D00F023BA6068F4
:102C7000091D00F01FFA206B854200D22563BDE8D4
:102C8000F0810000640000202C0700202DE9F041B5
:102C9000054600F033FA2E4C2069401C2061206864
:102CA0002C4F10B1E06940B32DE025602069012868
:102CB00029D1002606EB860007EB800000F0ECF936
:102CC000761C072EF6D323488C3000F0E5F9214816
:102CD000A03000F0E1F91F48B43000F0DDF91D48E4
:102CE000C83000F0D9F91B48DC3000F0D5F919489C
:102CF0008C3060601430A06005E02068E96AC06A2A
:102D0000884200D82560E06A401CE062E96A012040
:102D1000A26988401043A06101EB810007EB8000AD
:102D2000291D00F0DFF900F009FAE06900280CD055
:102D30002068E96AC06A884207D207494FF080508C
:102D40000860BFF34F8FBFF36F8FBDE8F0810000C5
:102D5000640000205006002004ED00E010B5044699
:102D600090F8510058B101280CD002280FD0502003
:102D700080F31188BFF34F8FBFF36F8FFEE7206B97
:102D800000F0F0F92046BDE8104000F0EBB910BDAE
:102D900010484FF44061420706D0C01D0D4920F095
:102DA0000700411AC1F540610B4A00230144C2E902
:102DB00000030839103A21F0070111604B600B60E5
:102DC0000B1AC0E9001393604FF000405360D060CD
:102DD0007047000040070020B0000020144E154C42
:102DE000A6F1C8074FF08058DFF84C9012E000BF02
:102DF00000F084F9F068C568281D00F02FF92069FB
:102E0000401E2061E068401EE06000F097F928460F
:102E1000FFF7A4FFE0680028EAD138680128F9D953
:102E2000C9F80080BFF34F8FBFF36F8FF2E7000048
:102E3000180700206400002004ED00E02DE9F047B1
:102E40009A46DDE9098481466FF00303206B03EBAA
:102E500082021044089D20F00706700707D050201A
:102E600080F31188BFF34F8FBFF36F8FFEE72318F6
:102E70000A5C83F834200A5C12B1401C1028F6D397
:102E8000002784F84370072D00D30625E562C4E9C6
:102E90001157201D00F00BF904F1180000F007F99C
:102EA0002461C5F107006462A061E76484F8507092
:102EB00052464946304600F0BFF82060B8F1000F96
:102EC00001D0C8F80040BDE8F087000030B51149D6
:102ED00000E011460A688242FBD34B685C188442CA
:102EE00003D1406818444860084643681C1894425F
:102EF00009D1084C103C2468A24209D052681A44F7
:102F000042600A6812680260814200D0086030BDE9
:102F10000460F9E7B000002006484168096829B15B
:102F20004168C968C9684968016370474FF0FF315B
:102F3000FAE700006400002008484068401C4FF099
:102F4000500080F3118804D0BFF34F8FBFF36F8F11
:102F5000FEE7BFF34F8FBFF36F8FFEE7B80000208F
:102F60002DE9F0410546002700F00EFA314E306899
:102F700008B9FFF70DFFF06805424BD1C5B308351E
:102F800068070ED005F00700C0F108000544680787
:102F900007D0502080F31188BFF34F8FBFF36F8F9E
:102FA000FEE72DB37068854234D8224810300146C0
:102FB0000C6801E020460C466168A94202D22168F3
:102FC0000029F7D131688C4224D00768216801605C
:102FD00060680837411B10290FD96019420708D0D3
:102FE000502080F31188BFF34F8FBFF36F8FFEE740
:102FF00010E041606560FFF769FF61687068401A22
:103000007060B268904200D2B060F0680143002066
:10301000C4E9000100F004FB780707D0502080F3DA
:103020001188BFF34F8FBFF36F8FFEE73846BDE8BF
:10303000F0810000A000002010B5031F4FF0807445
:103040001C601B1F21F001011960191F024B0B604E
:10305000143940380A6010BD392F0008D0E9013218
:1030600001699A60D0E901235A604A68824201D11D
:1030700082684A60002202610868401E0860086891
:1030800070470000034B036003F154000860802088
:1030900010607047BC03002000F108014FF0FF32C0
:1030A000C0E90112C1600161002101607047002187
:1030B0000161704730B50B685A1C02D000F108025C
:1030C00002E0026904E02246546825689D42FAD96C
:1030D00053684B6099608A60516008610168491CBF
:1030E000016030BD42684A6093688B6093685960A4
:1030F000916008610168491C01607047502080F3AD
:103100001188BFF34F8FBFF36F8F0A494868401C87
:10311000486001280CD10848006810F0FF0F07D064
:10312000502080F31188BFF34F8FBFF36F8FFEE7FE
:1031300070470000B800002004ED00E0084948682E
:1031400028B1401E486001D180F31188704750209B
:1031500080F31188BFF34F8FBFF36F8FFEE700003E
:10316000B800002070B5002827D0144DA0F1080445
:103170006168E868014207D1502080F31188BFF3ED
:103180004F8FBFF36F8FFEE722683AB1502080F374
:103190001188BFF34F8FBFF36F8FFEE781436160EC
:1031A00000F0F2F860686968084468602046FFF73C
:1031B0008DFEBDE8704000F033BA70BDA000002065
:1031C0004FF0E02000210161816105494FF47A72DE
:1031D0000968B1FBF2F1491E4161072101617047A5
:1031E0006000002070B50D4604000BD095B11E4A5A
:1031F000906BB8B1502080F31188BFF34F8FBFF3AD
:103200006F8FFEE7502080F31188BFF34F8FBFF31D
:103210006F8FFEE7502080F31188BFF34F8FBFF30D
:103220006F8FFEE700F0B0F8526923685919934296
:1032300004D98B420AD9914202D807E08B42FAD9CD
:10324000881A21600021FFF7E9FC00E0216000F00E
:10325000E7F9002807D105494FF080500860BFF317
:103260004F8FBFF36F8F70BD6400002004ED00E04E
:1032700070B50546FFF742FF254C05B92568281DA6
:10328000FFF7ECFE58B9E86A224A00EB800152F8D9
:10329000211021B901218140A0698843A061A86A59
:1032A00018B105F11800FFF7D9FEE06A401CE06292
:1032B0002068854208D11748291DC830FFF712FF42
:1032C000E068401CE06007E02069401E206128465D
:1032D000FFF744FDFFF720FEFFF730FFE06900280D
:1032E00014D02068854211D1A06B38B1502080F3F2
:1032F0001188BFF34F8FBFF36F8FFEE706494FF082
:1033000080500860BFF34F8FBFF36F8F70BD000018
:10331000640000205006002004ED00E010B586B0E7
:103320000024039405AA04A903A80494FFF7AAFEA5
:10333000DDE903010094CDE9011000230EA110483E
:10334000059A00F0D8F80F490028486311D05020A2
:1033500080F31188BFF34F8FBFF36F8F4FF0FF30B3
:1033600008630120C8614C6106B0BDE8104000F060
:1033700041B806B010BD000049444C4500000000B3
:10338000DD2D0008640000200248816B491C816328
:1033900070470000640000201448816B11B10121C6
:1033A00041627047002141628169B1FA81F1C1F146
:1033B0001F0101EB81020E4951F822306BB101EB84
:1033C000820101F108034A6852684A609A4201D1B9
:1033D00052684A60D16801607047502080F31188BC
:1033E000BFF34F8FBFF36F8FFEE700006400002034
:1033F000500600201CB5264908780190FF2008706F
:1034000008788DF800009DF800009DF8002000F07D
:10341000F000904207D0502080F31188BFF34F8F07
:10342000BFF36F8FFEE79DF800001A4B00F05000CD
:1034300018700720986005E09DF8002052008DF874
:103440000020401E9DF800201206F5D49860032845
:1034500007D0502080F31188BFF34F8FBFF36F8FD9
:10346000FEE74FF440709860019808700A480168C0
:1034700041F470010160016841F070410160FFF7A3
:103480009FFE00205860FCF74DFE00201CBD000090
:1034900000E400E0B800002020ED00E02DE9FF5F2F
:1034A0008346DDE90E87994616468A469000FFF767
:1034B00057FD05001CD05420FFF752FD040014D026
:1034C0000020256384F85100CDE90240CDE9008752
:1034D0004B46324651465846FFF7B0FC2046FFF7B0
:1034E000D5FB012004B0BDE8F09F2846FFF73AFE67
:1034F0004FF0FF30F6E7F0B585B0DDE90B640A9DCB
:10350000A6B1DCB1542700972663022684F85160E7
:10351000002604AFCDE90246CDE90057FFF78EFC47
:103520002046FFF7B3FB049805B0F0BD502080F3B0
:103530001188BFF34F8FBFF36F8FFEE7502080F3EA
:103540001188BFF34F8FBFF36F8FFEE701484069CB
:1035500070470000640000202DE9F0412E4C002748
:10356000A06B40B1206A401C2062606A00B1012754
:103570003846BDE8F0816669761C666113D16068E3
:10358000006838B1502080F31188BFF34F8FBFF32C
:103590006F8FFEE76068A1686160A060A06A401C50
:1035A000A062FFF7B9FC206BDFF87080864209D378
:1035B0006068006880B16068C068C56868688642F5
:1035C0000DD220632068C06A00EB800158F821000A
:1035D0000128CAD90127C8E74FF0FF30F1E7281DBD
:1035E000FFF73CFDA86A18B105F11800FFF736FD9A
:1035F000E86A0121A26981401143A16100EB8001C9
:1036000008EB8100291DFFF76DFDE86A2168C96A92
:103610008842CDD30127CBE764000020500600206C
:103620002DE9F0472C4D00242746A86B38B1FFF751
:1036300065FDA86B401EA863A86B40B146E0502012
:1036400080F31188BFF34F8FBFF36F8FFEE72969B7
:10365000224E0120D1B3A6F1B40980463068E8B10A
:10366000F068C46804F11800FFF7F8FC201DFFF7AC
:10367000F5FCE06AAA6908FA00F11143A96100EBC0
:10368000800109EB8100211DFFF72CFDE06A29680C
:10369000C96A8842E2D3C5F82480DFE70CB1FFF79E
:1036A0003BFC2C6A44B14646FFF756FF00B16E6200
:1036B000641EF9D100202862686A38B108490127E0
:1036C00038070860BFF34F8FBFF36F8FFFF736FDEA
:1036D0003846BDE8F08700006400002004070020A1
:1036E00004ED00E018370008B51C000800000000D9
:1036F000000000008000000000000000000000004A
:103700000000000000000000010203040607080991
:10371000000000000102030464656661756C745466
:1037200061736B004437000800000020C4000000F3
:103730000422000808380008C40000207C1600009D
:103740001422000800000000000000001400000027
:103750000000000000000000C800000000000000A1
:103760000000000001010101010101010100000050
:10377000000000000000000000000000148ED9438B
:10378000AE07DC43C315D743000000000000000073
:103790000000000000000000010000001000000018
:1037A000000000000024F400000000000000000001
:1037B0000000000000000000000000000000000009
:1037C00000000000000000000000000000000000F9
:1037D00000000000000000000000000000000000E9
:1037E00000000000000000000000000000000000D9
:1037F00000000000000000000000000000000000C9
:08380000AAAAAAAA0000000018
:04000005080000ED02
:00000001FF
